:100000000C9461000C9473000C9473000C947300B6
:100010000C9473000C9473000C9473000C94730094
:100020000C9473000C9473000C9473000C94730084
:100030000C9473000C9473000C9473000C94730074
:100040000C947E010C9473000C9473000C94730058
:100050000C9473000C9473000C9473000C94730054
:100060000C9473000C94730000000000240027001F
:100070002A0000000000250028002B0000000000DE
:1000800023002600290004040404040404040202DA
:100090000202020203030303030301020408102007
:1000A0004080010204081020010204081020000012
:1000B0000008000201000003040700000000000027
:1000C000000011241FBECFEFD8E0DEBFCDBF21E07E
:1000D000A0E0B1E001C01D92AA30B207E1F70E9492
:1000E000C8010C9455020C940000833081F028F470
:1000F000813099F08230A9F008958730A9F08830D6
:10010000C9F08430B1F4809180008F7D03C080916C
:1001100080008F7780938000089584B58F7784BDA9
:10012000089584B58F7DFBCF8091B0008F77809349
:10013000B00008958091B0008F7DF9CFCF93DF9309
:10014000E6EBF0E08491E2EAF0E0D491EEE8F0E052
:10015000C491CC23A1F081110E947500EC2FF0E036
:10016000EE0FFF1FE458FF4FA591B491EC91ED23E2
:1001700081E090E009F480E0DF91CF91089580E084
:1001800090E0FACF1F93CF93DF93282F30E0F9014F
:10019000E255FF4F8491F901E656FF4FD491F901E2
:1001A000EA57FF4FC491CC23A9F0162F81110E946A
:1001B0007500EC2FF0E0EE0FFF1FEE58FF4FA591FA
:1001C000B4918FB7F894EC91111108C0D095DE234B
:1001D000DC938FBFDF91CF911F910895DE2BF8CF75
:1001E000CF93DF9390E0FC01E656FF4F24918A57AE
:1001F0009F4FFC0184918823D1F090E0880F991FD4
:10020000FC01E859FF4FA591B491FC01EE58FF4F56
:10021000C591D491623071F49FB7F8943C91822FCC
:10022000809583238C93E8812E2B28839FBFDF91B9
:10023000CF9108958FB7F894EC912E2B2C938FBF0C
:10024000F6CF1F93CF93DF93182FEB0161E00E944D
:10025000F000209739F460E0812FDF91CF911F915A
:100260000C94C200CF3FD10511F461E0F5CFE12F2E
:10027000F0E0E255FF4FE491E33031F140F4E1303A
:10028000B1F0E230E1F0C038D1057CF7E4CFE730DF
:1002900029F1E83059F1E430B1F7809180008062B3
:1002A00080938000D0938B00C0938A0004C084B5F3
:1002B000806884BDC7BDDF91CF911F91089584B53B
:1002C000806284BDC8BDF7CF809180008068809334
:1002D0008000D0938900C0938800EDCF8091B0005A
:1002E00080688093B000C093B300E5CF8091B000E8
:1002F00080628093B000C093B400DDCF1F920F9254
:100300000FB60F9211242F933F938F939F93AF9328
:10031000BF938091060190910701A0910801B091CF
:1003200009013091050123E0230F2D3758F501967F
:10033000A11DB11D20930501809306019093070133
:10034000A0930801B09309018091010190910201ED
:10035000A0910301B09104010196A11DB11D8093EC
:10036000010190930201A0930301B0930401BF9196
:10037000AF919F918F913F912F910F900FBE0F9052
:100380001F90189526E8230F0296A11DB11DD2CF0C
:10039000789484B5826084BD84B5816084BD85B560
:1003A000826085BD85B5816085BD80916E0081606C
:1003B00080936E0010928100809181008260809312
:1003C0008100809181008160809381008091800014
:1003D0008160809380008091B10084608093B1003F
:1003E0008091B00081608093B00080917A00846039
:1003F00080937A0080917A00826080937A00809165
:100400007A00816080937A0080917A00806880937E
:100410007A001092C10062E088E00E94F00061E082
:1004200089E00E94F00061E08AE00E94F000D0E4E0
:10043000FF24F39400E010E0D0937C0080917A00D8
:10044000806480937A0080917A0086FDFCCF809151
:10045000780060917900762F682F77FF02C06D5F7A
:100460007F4F7595679575956795C091000189E0F7
:10047000C11101C08AE00E9421010E949E00892BC7
:1004800071F40E949E00892BE1F360E0CF25C093B8
:1004900000018AE0C11101C089E00E94C20001157B
:0E04A000110551F20E940000C7CFF894FFCF63
:00000001FF
